{
  "_format": "hh-sol-artifact-1",
  "contractName": "KsnReferralStaking",
  "sourceName": "contracts/tokens/KsnReferralStaking.sol",
  "abi": [
    {
      "inputs": [
        {
          "internalType": "address",
          "name": "_stakingToken",
          "type": "address"
        },
        {
          "internalType": "address",
          "name": "_rewardsToken",
          "type": "address"
        }
      ],
      "stateMutability": "nonpayable",
      "type": "constructor"
    },
    {
      "anonymous": false,
      "inputs": [
        {
          "indexed": true,
          "internalType": "address",
          "name": "previousOwner",
          "type": "address"
        },
        {
          "indexed": true,
          "internalType": "address",
          "name": "newOwner",
          "type": "address"
        }
      ],
      "name": "OwnershipTransferred",
      "type": "event"
    },
    {
      "inputs": [
        {
          "internalType": "address",
          "name": "_user",
          "type": "address"
        },
        {
          "internalType": "uint256",
          "name": "_poolID",
          "type": "uint256"
        }
      ],
      "name": "calculateReferralRewards",
      "outputs": [
        {
          "internalType": "uint256",
          "name": "",
          "type": "uint256"
        }
      ],
      "stateMutability": "view",
      "type": "function"
    },
    {
      "inputs": [
        {
          "internalType": "address",
          "name": "_user",
          "type": "address"
        },
        {
          "internalType": "uint256",
          "name": "_poolID",
          "type": "uint256"
        }
      ],
      "name": "calculateUserRewards",
      "outputs": [
        {
          "internalType": "uint256",
          "name": "",
          "type": "uint256"
        }
      ],
      "stateMutability": "view",
      "type": "function"
    },
    {
      "inputs": [
        {
          "internalType": "uint256",
          "name": "_poolID",
          "type": "uint256"
        }
      ],
      "name": "claimReferralReward",
      "outputs": [],
      "stateMutability": "nonpayable",
      "type": "function"
    },
    {
      "inputs": [
        {
          "internalType": "uint256",
          "name": "_poolID",
          "type": "uint256"
        }
      ],
      "name": "claimReward",
      "outputs": [],
      "stateMutability": "nonpayable",
      "type": "function"
    },
    {
      "inputs": [
        {
          "internalType": "string",
          "name": "_poolName",
          "type": "string"
        },
        {
          "internalType": "uint256",
          "name": "_stakingDuration",
          "type": "uint256"
        },
        {
          "internalType": "uint256",
          "name": "_APY",
          "type": "uint256"
        },
        {
          "internalType": "uint256",
          "name": "_referralRewardPercentage",
          "type": "uint256"
        },
        {
          "internalType": "uint256",
          "name": "_minimumDeposit",
          "type": "uint256"
        },
        {
          "internalType": "uint256",
          "name": "_lockDuration",
          "type": "uint256"
        }
      ],
      "name": "createPool",
      "outputs": [
        {
          "internalType": "uint256",
          "name": "_createdPoolIndex",
          "type": "uint256"
        }
      ],
      "stateMutability": "nonpayable",
      "type": "function"
    },
    {
      "inputs": [],
      "name": "getPoolCount",
      "outputs": [
        {
          "internalType": "uint256",
          "name": "",
          "type": "uint256"
        }
      ],
      "stateMutability": "view",
      "type": "function"
    },
    {
      "inputs": [
        {
          "internalType": "uint256",
          "name": "_poolID",
          "type": "uint256"
        }
      ],
      "name": "getPoolInfo",
      "outputs": [
        {
          "internalType": "string",
          "name": "poolName",
          "type": "string"
        },
        {
          "internalType": "uint256",
          "name": "stakingDuration",
          "type": "uint256"
        },
        {
          "internalType": "uint256",
          "name": "APY",
          "type": "uint256"
        },
        {
          "internalType": "uint256",
          "name": "minimumDeposit",
          "type": "uint256"
        },
        {
          "internalType": "uint256",
          "name": "totalStaked",
          "type": "uint256"
        },
        {
          "internalType": "bool",
          "name": "stakingIsPaused",
          "type": "bool"
        },
        {
          "internalType": "bool",
          "name": "poolIsInitialized",
          "type": "bool"
        }
      ],
      "stateMutability": "view",
      "type": "function"
    },
    {
      "inputs": [
        {
          "internalType": "uint256",
          "name": "_poolID",
          "type": "uint256"
        },
        {
          "internalType": "address",
          "name": "_user",
          "type": "address"
        }
      ],
      "name": "getUserInfo",
      "outputs": [
        {
          "internalType": "uint256",
          "name": "userStakedBalance",
          "type": "uint256"
        },
        {
          "internalType": "bool",
          "name": "hasStaked",
          "type": "bool"
        },
        {
          "internalType": "uint256",
          "name": "lastTimeUserStaked",
          "type": "uint256"
        },
        {
          "internalType": "address",
          "name": "referrer",
          "type": "address"
        },
        {
          "internalType": "uint256",
          "name": "referralRewards",
          "type": "uint256"
        }
      ],
      "stateMutability": "view",
      "type": "function"
    },
    {
      "inputs": [
        {
          "internalType": "uint256",
          "name": "",
          "type": "uint256"
        },
        {
          "internalType": "address",
          "name": "",
          "type": "address"
        }
      ],
      "name": "hasReferredStake",
      "outputs": [
        {
          "internalType": "bool",
          "name": "",
          "type": "bool"
        }
      ],
      "stateMutability": "view",
      "type": "function"
    },
    {
      "inputs": [],
      "name": "owner",
      "outputs": [
        {
          "internalType": "address",
          "name": "",
          "type": "address"
        }
      ],
      "stateMutability": "view",
      "type": "function"
    },
    {
      "inputs": [
        {
          "internalType": "uint256",
          "name": "_poolID",
          "type": "uint256"
        }
      ],
      "name": "pauseStaking",
      "outputs": [],
      "stateMutability": "nonpayable",
      "type": "function"
    },
    {
      "inputs": [
        {
          "internalType": "uint256",
          "name": "",
          "type": "uint256"
        }
      ],
      "name": "poolIndexArray",
      "outputs": [
        {
          "internalType": "uint256",
          "name": "",
          "type": "uint256"
        }
      ],
      "stateMutability": "view",
      "type": "function"
    },
    {
      "inputs": [
        {
          "internalType": "uint256",
          "name": "",
          "type": "uint256"
        }
      ],
      "name": "pools",
      "outputs": [
        {
          "internalType": "string",
          "name": "poolName",
          "type": "string"
        },
        {
          "internalType": "uint256",
          "name": "stakingDuration",
          "type": "uint256"
        },
        {
          "internalType": "uint256",
          "name": "APY",
          "type": "uint256"
        },
        {
          "internalType": "uint256",
          "name": "referralRewardPercentage",
          "type": "uint256"
        },
        {
          "internalType": "uint256",
          "name": "minimumDeposit",
          "type": "uint256"
        },
        {
          "internalType": "uint256",
          "name": "totalStaked",
          "type": "uint256"
        },
        {
          "internalType": "uint256",
          "name": "lockDuration",
          "type": "uint256"
        },
        {
          "internalType": "bool",
          "name": "stakingIsPaused",
          "type": "bool"
        },
        {
          "internalType": "bool",
          "name": "poolIsInitialized",
          "type": "bool"
        }
      ],
      "stateMutability": "view",
      "type": "function"
    },
    {
      "inputs": [],
      "name": "renounceOwnership",
      "outputs": [],
      "stateMutability": "nonpayable",
      "type": "function"
    },
    {
      "inputs": [
        {
          "internalType": "uint256",
          "name": "_poolID",
          "type": "uint256"
        }
      ],
      "name": "resumeStaking",
      "outputs": [],
      "stateMutability": "nonpayable",
      "type": "function"
    },
    {
      "inputs": [],
      "name": "rewardsToken",
      "outputs": [
        {
          "internalType": "contract IERC20",
          "name": "",
          "type": "address"
        }
      ],
      "stateMutability": "view",
      "type": "function"
    },
    {
      "inputs": [
        {
          "internalType": "uint256",
          "name": "_amount",
          "type": "uint256"
        },
        {
          "internalType": "uint256",
          "name": "_poolID",
          "type": "uint256"
        },
        {
          "internalType": "address",
          "name": "_referrer",
          "type": "address"
        }
      ],
      "name": "stake",
      "outputs": [],
      "stateMutability": "nonpayable",
      "type": "function"
    },
    {
      "inputs": [],
      "name": "stakingToken",
      "outputs": [
        {
          "internalType": "contract IERC20",
          "name": "",
          "type": "address"
        }
      ],
      "stateMutability": "view",
      "type": "function"
    },
    {
      "inputs": [],
      "name": "totalTokenStaked",
      "outputs": [
        {
          "internalType": "uint256",
          "name": "",
          "type": "uint256"
        }
      ],
      "stateMutability": "view",
      "type": "function"
    },
    {
      "inputs": [
        {
          "internalType": "address",
          "name": "newOwner",
          "type": "address"
        }
      ],
      "name": "transferOwnership",
      "outputs": [],
      "stateMutability": "nonpayable",
      "type": "function"
    },
    {
      "inputs": [
        {
          "internalType": "uint256",
          "name": "_poolID",
          "type": "uint256"
        }
      ],
      "name": "unstake",
      "outputs": [],
      "stateMutability": "nonpayable",
      "type": "function"
    },
    {
      "inputs": [
        {
          "internalType": "address",
          "name": "",
          "type": "address"
        },
        {
          "internalType": "uint256",
          "name": "",
          "type": "uint256"
        }
      ],
      "name": "userReferrers",
      "outputs": [
        {
          "internalType": "address",
          "name": "",
          "type": "address"
        }
      ],
      "stateMutability": "view",
      "type": "function"
    }
  ],
  "bytecode": "0x608060405234801561001057600080fd5b506004361061012c5760003560e01c80638da5cb5b116100ad578063b49126d711610071578063b49126d714610353578063b80e7de914610383578063d1af0c7d1461039f578063e1a7c823146103bd578063f2fde38b146103ed5761012c565b80638da5cb5b146102935780638edd659b146102b15780638eec5d70146102e1578063ac4afa38146102ff578063ae169a50146103375761012c565b8063715018a6116100f4578063715018a6146101ef57806372f702f3146101f95780637628a37d146102175780637a7ff0dd14610233578063824ab345146102635761012c565b80631069f3b51461013157806311344adc146101655780632e17de78146101815780632f380b351461019d57806340e85fc4146101d3575b600080fd5b61014b60048036038101906101469190612339565b610409565b60405161015c9594939291906123b2565b60405180910390f35b61017f600480360381019061017a9190612405565b610660565b005b61019b60048036038101906101969190612405565b6108e4565b005b6101b760048036038101906101b29190612405565b610e81565b6040516101ca97969594939291906124c2565b60405180910390f35b6101ed60048036038101906101e89190612405565b611055565b005b6101f76110f9565b005b61020161110d565b60405161020e9190612597565b60405180910390f35b610231600480360381019061022c91906125b2565b611133565b005b61024d60048036038101906102489190612605565b611717565b60405161025a9190612645565b60405180910390f35b61027d60048036038101906102789190612605565b61189c565b60405161028a9190612645565b60405180910390f35b61029b6119a0565b6040516102a89190612660565b60405180910390f35b6102cb60048036038101906102c69190612339565b6119c9565b6040516102d8919061267b565b60405180910390f35b6102e96119f8565b6040516102f69190612645565b60405180910390f35b61031960048036038101906103149190612405565b611a05565b60405161032e99989796959493929190612696565b60405180910390f35b610351600480360381019061034c9190612405565b611af5565b005b61036d6004803603810190610368919061285f565b611e84565b60405161037a9190612645565b60405180910390f35b61039d60048036038101906103989190612405565b611fd6565b005b6103a761207a565b6040516103b49190612597565b60405180910390f35b6103d760048036038101906103d29190612405565b6120a0565b6040516103e49190612645565b60405180910390f35b61040760048036038101906104029190612908565b6120c4565b005b60008060008060006001151560036000898152602001908152602001600020600e0160009054906101000a900460ff1615151461047b576040517f08c379a000000000000000000000000000000000000000000000000000000000815260040161047290612981565b60405180910390fd5b6003600088815260200190815260200160002060080160008773ffffffffffffffffffffffffffffffffffffffff1673ffffffffffffffffffffffffffffffffffffffff168152602001908152602001600020546003600089815260200190815260200160002060090160008873ffffffffffffffffffffffffffffffffffffffff1673ffffffffffffffffffffffffffffffffffffffff16815260200190815260200160002060009054906101000a900460ff16600360008a8152602001908152602001600020600a0160008973ffffffffffffffffffffffffffffffffffffffff1673ffffffffffffffffffffffffffffffffffffffff16815260200190815260200160002054600360008b8152602001908152602001600020600b0160008a73ffffffffffffffffffffffffffffffffffffffff1673ffffffffffffffffffffffffffffffffffffffff16815260200190815260200160002060009054906101000a900473ffffffffffffffffffffffffffffffffffffffff16600360008c8152602001908152602001600020600c0160008b73ffffffffffffffffffffffffffffffffffffffff1673ffffffffffffffffffffffffffffffffffffffff16815260200190815260200160002054945094509450945094509295509295909350565b60045481106106a4576040517f08c379a000000000000000000000000000000000000000000000000000000000815260040161069b906129ed565b60405180910390fd5b600115156003600083815260200190815260200160002060090160003373ffffffffffffffffffffffffffffffffffffffff1673ffffffffffffffffffffffffffffffffffffffff16815260200190815260200160002060009054906101000a900460ff1615151461074b576040517f08c379a000000000000000000000000000000000000000000000000000000000815260040161074290612a7f565b60405180910390fd5b600060036000838152602001908152602001600020600c0160003373ffffffffffffffffffffffffffffffffffffffff1673ffffffffffffffffffffffffffffffffffffffff168152602001908152602001600020549050600081116107e6576040517f08c379a00000000000000000000000000000000000000000000000000000000081526004016107dd90612b11565b60405180910390fd5b600060036000848152602001908152602001600020600c0160003373ffffffffffffffffffffffffffffffffffffffff1673ffffffffffffffffffffffffffffffffffffffff16815260200190815260200160002081905550600160009054906101000a900473ffffffffffffffffffffffffffffffffffffffff1673ffffffffffffffffffffffffffffffffffffffff1663a9059cbb33836040518363ffffffff1660e01b815260040161089c929190612b31565b6020604051808303816000875af11580156108bb573d6000803e3d6000fd5b505050506040513d601f19601f820116820180604052508101906108df9190612b86565b505050565b6003600082815260200190815260200160002060090160003373ffffffffffffffffffffffffffffffffffffffff1673ffffffffffffffffffffffffffffffffffffffff16815260200190815260200160002060009054906101000a900460ff16610984576040517f08c379a000000000000000000000000000000000000000000000000000000000815260040161097b90612a7f565b60405180910390fd5b60006003600083815260200190815260200160002060080160003373ffffffffffffffffffffffffffffffffffffffff1673ffffffffffffffffffffffffffffffffffffffff16815260200190815260200160002054905060006109e83384611717565b905060006109f6338561189c565b905060006003600086815260200190815260200160002060080160003373ffffffffffffffffffffffffffffffffffffffff1673ffffffffffffffffffffffffffffffffffffffff1681526020019081526020016000208190555060006003600086815260200190815260200160002060090160003373ffffffffffffffffffffffffffffffffffffffff1673ffffffffffffffffffffffffffffffffffffffff16815260200190815260200160002060006101000a81548160ff02191690831515021790555082600360008681526020019081526020016000206005016000828254610ae39190612be2565b925050819055506000821115610b9557600160009054906101000a900473ffffffffffffffffffffffffffffffffffffffff1673ffffffffffffffffffffffffffffffffffffffff1663a9059cbb33846040518363ffffffff1660e01b8152600401610b50929190612b31565b6020604051808303816000875af1158015610b6f573d6000803e3d6000fd5b505050506040513d601f19601f82011682018060405250810190610b939190612b86565b505b6000811115610d2357600060036000868152602001908152602001600020600b0160003373ffffffffffffffffffffffffffffffffffffffff1673ffffffffffffffffffffffffffffffffffffffff16815260200190815260200160002060009054906101000a900473ffffffffffffffffffffffffffffffffffffffff1690508160036000878152602001908152602001600020600c0160008373ffffffffffffffffffffffffffffffffffffffff1673ffffffffffffffffffffffffffffffffffffffff1681526020019081526020016000206000828254610c799190612c16565b92505081905550600160009054906101000a900473ffffffffffffffffffffffffffffffffffffffff1673ffffffffffffffffffffffffffffffffffffffff1663a9059cbb82846040518363ffffffff1660e01b8152600401610cdd929190612b31565b6020604051808303816000875af1158015610cfc573d6000803e3d6000fd5b505050506040513d601f19601f82011682018060405250810190610d209190612b86565b50505b600360008581526020019081526020016000206006015460036000868152602001908152602001600020600a0160003373ffffffffffffffffffffffffffffffffffffffff1673ffffffffffffffffffffffffffffffffffffffff16815260200190815260200160002054610d989190612c16565b421015610dda576040517f08c379a0000000000000000000000000000000000000000000000000000000008152600401610dd190612c96565b60405180910390fd5b600260009054906101000a900473ffffffffffffffffffffffffffffffffffffffff1673ffffffffffffffffffffffffffffffffffffffff1663a9059cbb33856040518363ffffffff1660e01b8152600401610e37929190612b31565b6020604051808303816000875af1158015610e56573d6000803e3d6000fd5b505050506040513d601f19601f82011682018060405250810190610e7a9190612b86565b5050505050565b606060008060008060008060011515600360008a8152602001908152602001600020600e0160009054906101000a900460ff16151514610ef6576040517f08c379a0000000000000000000000000000000000000000000000000000000008152600401610eed90612981565b60405180910390fd5b60036000898152602001908152602001600020600001600360008a815260200190815260200160002060010154600360008b815260200190815260200160002060020154600360008c815260200190815260200160002060040154600360008d815260200190815260200160002060050154600360008e815260200190815260200160002060070160009054906101000a900460ff16600360008f8152602001908152602001600020600e0160009054906101000a900460ff16868054610fbc90612ce5565b80601f0160208091040260200160405190810160405280929190818152602001828054610fe890612ce5565b80156110355780601f1061100a57610100808354040283529160200191611035565b820191906000526020600020905b81548152906001019060200180831161101857829003601f168201915b505050505096509650965096509650965096509650919395979092949650565b61105d612147565b6001151560036000838152602001908152602001600020600e0160009054906101000a900460ff161515146110c7576040517f08c379a00000000000000000000000000000000000000000000000000000000081526004016110be90612981565b60405180910390fd5b60016003600083815260200190815260200160002060070160006101000a81548160ff02191690831515021790555050565b611101612147565b61110b60006121c5565b565b600260009054906101000a900473ffffffffffffffffffffffffffffffffffffffff1681565b6001151560036000848152602001908152602001600020600e0160009054906101000a900460ff1615151461119d576040517f08c379a000000000000000000000000000000000000000000000000000000000815260040161119490612981565b60405180910390fd5b60036000838152602001908152602001600020600401548310156111f6576040517f08c379a00000000000000000000000000000000000000000000000000000000081526004016111ed90612d88565b60405180910390fd5b60006003600084815260200190815260200160002060080160003373ffffffffffffffffffffffffffffffffffffffff1673ffffffffffffffffffffffffffffffffffffffff168152602001908152602001600020549050600115156003600085815260200190815260200160002060090160003373ffffffffffffffffffffffffffffffffffffffff1673ffffffffffffffffffffffffffffffffffffffff16815260200190815260200160002060009054906101000a900460ff1615150361132957836003600085815260200190815260200160002060080160003373ffffffffffffffffffffffffffffffffffffffff1673ffffffffffffffffffffffffffffffffffffffff168152602001908152602001600020600082825461131d9190612c16565b92505081905550611465565b836003600085815260200190815260200160002060080160003373ffffffffffffffffffffffffffffffffffffffff1673ffffffffffffffffffffffffffffffffffffffff1681526020019081526020016000208190555060016003600085815260200190815260200160002060090160003373ffffffffffffffffffffffffffffffffffffffff1673ffffffffffffffffffffffffffffffffffffffff16815260200190815260200160002060006101000a81548160ff02191690831515021790555060036000848152602001908152602001600020600d01339080600181540180825580915050600190039060005260206000200160009091909190916101000a81548173ffffffffffffffffffffffffffffffffffffffff021916908373ffffffffffffffffffffffffffffffffffffffff1602179055505b80846114719190612be2565b60036000858152602001908152602001600020600501546114929190612c16565b6003600085815260200190815260200160002060050181905550600073ffffffffffffffffffffffffffffffffffffffff168273ffffffffffffffffffffffffffffffffffffffff161415801561151557503373ffffffffffffffffffffffffffffffffffffffff168273ffffffffffffffffffffffffffffffffffffffff1614155b15611616578160036000858152602001908152602001600020600b0160003373ffffffffffffffffffffffffffffffffffffffff1673ffffffffffffffffffffffffffffffffffffffff16815260200190815260200160002060006101000a81548173ffffffffffffffffffffffffffffffffffffffff021916908373ffffffffffffffffffffffffffffffffffffffff16021790555060016006600085815260200190815260200160002060008473ffffffffffffffffffffffffffffffffffffffff1673ffffffffffffffffffffffffffffffffffffffff16815260200190815260200160002060006101000a81548160ff0219169083151502179055505b600260009054906101000a900473ffffffffffffffffffffffffffffffffffffffff1673ffffffffffffffffffffffffffffffffffffffff166323b872dd3330876040518463ffffffff1660e01b815260040161167593929190612da8565b6020604051808303816000875af1158015611694573d6000803e3d6000fd5b505050506040513d601f19601f820116820180604052508101906116b89190612b86565b504260036000858152602001908152602001600020600a0160003373ffffffffffffffffffffffffffffffffffffffff1673ffffffffffffffffffffffffffffffffffffffff1681526020019081526020016000208190555050505050565b6000600115156003600084815260200190815260200160002060090160008573ffffffffffffffffffffffffffffffffffffffff1673ffffffffffffffffffffffffffffffffffffffff16815260200190815260200160002060009054906101000a900460ff1615150361189157600060036000848152602001908152602001600020600a0160008573ffffffffffffffffffffffffffffffffffffffff1673ffffffffffffffffffffffffffffffffffffffff168152602001908152602001600020549050600081426117eb9190612be2565b905060006003600086815260200190815260200160002060080160008773ffffffffffffffffffffffffffffffffffffffff1673ffffffffffffffffffffffffffffffffffffffff168152602001908152602001600020549050600063bbf81e008360036000898152602001908152602001600020600201548461186f9190612ddf565b6118799190612ddf565b6118839190612e68565b905080945050505050611896565b600090505b92915050565b60008060036000848152602001908152602001600020600b0160008573ffffffffffffffffffffffffffffffffffffffff1673ffffffffffffffffffffffffffffffffffffffff16815260200190815260200160002060009054906101000a900473ffffffffffffffffffffffffffffffffffffffff169050600073ffffffffffffffffffffffffffffffffffffffff168173ffffffffffffffffffffffffffffffffffffffff16146119945760006119558585611717565b90506000606460036000878152602001908152602001600020600301548361197d9190612ddf565b6119879190612e68565b905080935050505061199a565b60009150505b92915050565b60008060009054906101000a900473ffffffffffffffffffffffffffffffffffffffff16905090565b60066020528160005260406000206020528060005260406000206000915091509054906101000a900460ff1681565b6000600580549050905090565b6003602052806000526040600020600091509050806000018054611a2890612ce5565b80601f0160208091040260200160405190810160405280929190818152602001828054611a5490612ce5565b8015611aa15780601f10611a7657610100808354040283529160200191611aa1565b820191906000526020600020905b815481529060010190602001808311611a8457829003601f168201915b5050505050908060010154908060020154908060030154908060040154908060050154908060060154908060070160009054906101000a900460ff169080600e0160009054906101000a900460ff16905089565b6004548110611b39576040517f08c379a0000000000000000000000000000000000000000000000000000000008152600401611b30906129ed565b60405180910390fd5b600115156003600083815260200190815260200160002060090160003373ffffffffffffffffffffffffffffffffffffffff1673ffffffffffffffffffffffffffffffffffffffff16815260200190815260200160002060009054906101000a900460ff16151514611be0576040517f08c379a0000000000000000000000000000000000000000000000000000000008152600401611bd790612f0b565b60405180910390fd5b6000611bec3383611717565b905060008111611c31576040517f08c379a0000000000000000000000000000000000000000000000000000000008152600401611c2890612f9d565b60405180910390fd5b6000611c3d338461189c565b905060008183611c4d9190612be2565b9050600160009054906101000a900473ffffffffffffffffffffffffffffffffffffffff1673ffffffffffffffffffffffffffffffffffffffff1663a9059cbb33836040518363ffffffff1660e01b8152600401611cac929190612b31565b6020604051808303816000875af1158015611ccb573d6000803e3d6000fd5b505050506040513d601f19601f82011682018060405250810190611cef9190612b86565b506000821115611e7e57600060036000868152602001908152602001600020600b0160003373ffffffffffffffffffffffffffffffffffffffff1673ffffffffffffffffffffffffffffffffffffffff16815260200190815260200160002060009054906101000a900473ffffffffffffffffffffffffffffffffffffffff1690508260036000878152602001908152602001600020600c0160008373ffffffffffffffffffffffffffffffffffffffff1673ffffffffffffffffffffffffffffffffffffffff1681526020019081526020016000206000828254611dd49190612c16565b92505081905550600160009054906101000a900473ffffffffffffffffffffffffffffffffffffffff1673ffffffffffffffffffffffffffffffffffffffff1663a9059cbb82856040518363ffffffff1660e01b8152600401611e38929190612b31565b6020604051808303816000875af1158015611e57573d6000803e3d6000fd5b505050506040513d601f19601f82011682018060405250810190611e7b9190612b86565b50505b50505050565b6000611e8e612147565b866003600060045481526020019081526020016000206000019081611eb3919061315f565b50856003600060045481526020019081526020016000206001018190555084600360006004548152602001908152602001600020600201819055508360036000600454815260200190815260200160002060030181905550826003600060045481526020019081526020016000206004018190555081600360006004548152602001908152602001600020600601819055506001600360006004548152602001908152602001600020600e0160006101000a81548160ff02191690831515021790555060056004549080600181540180825580915050600190039060005260206000200160009091909190915055600160046000828254611fb49190612c16565b925050819055506001600454611fca9190612be2565b90509695505050505050565b611fde612147565b6001151560036000838152602001908152602001600020600e0160009054906101000a900460ff16151514612048576040517f08c379a000000000000000000000000000000000000000000000000000000000815260040161203f90612981565b60405180910390fd5b60006003600083815260200190815260200160002060070160006101000a81548160ff02191690831515021790555050565b600160009054906101000a900473ffffffffffffffffffffffffffffffffffffffff1681565b600581815481106120b057600080fd5b906000526020600020016000915090505481565b6120cc612147565b600073ffffffffffffffffffffffffffffffffffffffff168173ffffffffffffffffffffffffffffffffffffffff160361213b576040517f08c379a0000000000000000000000000000000000000000000000000000000008152600401612132906132a3565b60405180910390fd5b612144816121c5565b50565b61214f612289565b73ffffffffffffffffffffffffffffffffffffffff1661216d6119a0565b73ffffffffffffffffffffffffffffffffffffffff16146121c3576040517f08c379a00000000000000000000000000000000000000000000000000000000081526004016121ba9061330f565b60405180910390fd5b565b60008060009054906101000a900473ffffffffffffffffffffffffffffffffffffffff169050816000806101000a81548173ffffffffffffffffffffffffffffffffffffffff021916908373ffffffffffffffffffffffffffffffffffffffff1602179055508173ffffffffffffffffffffffffffffffffffffffff168173ffffffffffffffffffffffffffffffffffffffff167f8be0079c531659141344cd1fd0a4f28419497f9722a3daafe3b4186f6b6457e060405160405180910390a35050565b600033905090565b6000604051905090565b600080fd5b600080fd5b6000819050919050565b6122b8816122a5565b81146122c357600080fd5b50565b6000813590506122d5816122af565b92915050565b600073ffffffffffffffffffffffffffffffffffffffff82169050919050565b6000612306826122db565b9050919050565b612316816122fb565b811461232157600080fd5b50565b6000813590506123338161230d565b92915050565b600080604083850312156123505761234f61229b565b5b600061235e858286016122c6565b925050602061236f85828601612324565b9150509250929050565b612382816122a5565b82525050565b60008115159050919050565b61239d81612388565b82525050565b6123ac816122fb565b82525050565b600060a0820190506123c76000830188612379565b6123d46020830187612394565b6123e16040830186612379565b6123ee60608301856123a3565b6123fb6080830184612379565b9695505050505050565b60006020828403121561241b5761241a61229b565b5b6000612429848285016122c6565b91505092915050565b600081519050919050565b600082825260208201905092915050565b60005b8381101561246c578082015181840152602081019050612451565b60008484015250505050565b6000601f19601f8301169050919050565b600061249482612432565b61249e818561243d565b93506124ae81856020860161244e565b6124b781612478565b840191505092915050565b600060e08201905081810360008301526124dc818a612489565b90506124eb6020830189612379565b6124f86040830188612379565b6125056060830187612379565b6125126080830186612379565b61251f60a0830185612394565b61252c60c0830184612394565b98975050505050505050565b6000819050919050565b600061255d612558612553846122db565b612538565b6122db565b9050919050565b600061256f82612542565b9050919050565b600061258182612564565b9050919050565b61259181612576565b82525050565b60006020820190506125ac6000830184612588565b92915050565b6000806000606084860312156125cb576125ca61229b565b5b60006125d9868287016122c6565b93505060206125ea868287016122c6565b92505060406125fb86828701612324565b9150509250925092565b6000806040838503121561261c5761261b61229b565b5b600061262a85828601612324565b925050602061263b858286016122c6565b9150509250929050565b600060208201905061265a6000830184612379565b92915050565b600060208201905061267560008301846123a3565b92915050565b60006020820190506126906000830184612394565b92915050565b60006101208201905081810360008301526126b1818c612489565b90506126c0602083018b612379565b6126cd604083018a612379565b6126da6060830189612379565b6126e76080830188612379565b6126f460a0830187612379565b61270160c0830186612379565b61270e60e0830185612394565b61271c610100830184612394565b9a9950505050505050505050565b600080fd5b600080fd5b7f4e487b7100000000000000000000000000000000000000000000000000000000600052604160045260246000fd5b61276c82612478565b810181811067ffffffffffffffff8211171561278b5761278a612734565b5b80604052505050565b600061279e612291565b90506127aa8282612763565b919050565b600067ffffffffffffffff8211156127ca576127c9612734565b5b6127d382612478565b9050602081019050919050565b82818337600083830152505050565b60006128026127fd846127af565b612794565b90508281526020810184848401111561281e5761281d61272f565b5b6128298482856127e0565b509392505050565b600082601f8301126128465761284561272a565b5b81356128568482602086016127ef565b91505092915050565b60008060008060008060c0878903121561287c5761287b61229b565b5b600087013567ffffffffffffffff81111561289a576128996122a0565b5b6128a689828a01612831565b96505060206128b789828a016122c6565b95505060406128c889828a016122c6565b94505060606128d989828a016122c6565b93505060806128ea89828a016122c6565b92505060a06128fb89828a016122c6565b9150509295509295509295565b60006020828403121561291e5761291d61229b565b5b600061292c84828501612324565b91505092915050565b7f506f6f6c20646f6573206e6f7420657869737400000000000000000000000000600082015250565b600061296b60138361243d565b915061297682612935565b602082019050919050565b6000602082019050818103600083015261299a8161295e565b9050919050565b7f496e76616c696420706f6f6c2049440000000000000000000000000000000000600082015250565b60006129d7600f8361243d565b91506129e2826129a1565b602082019050919050565b60006020820190508181036000830152612a06816129ca565b9050919050565b7f596f752063757272656e746c792068617665206e6f207374616b6520696e207460008201527f68697320706f6f6c2e0000000000000000000000000000000000000000000000602082015250565b6000612a6960298361243d565b9150612a7482612a0d565b604082019050919050565b60006020820190508181036000830152612a9881612a5c565b9050919050565b7f596f752063757272656e746c792068617665206e6f20726566657272616c207260008201527f65776172647320746f20636c61696d0000000000000000000000000000000000602082015250565b6000612afb602f8361243d565b9150612b0682612a9f565b604082019050919050565b60006020820190508181036000830152612b2a81612aee565b9050919050565b6000604082019050612b4660008301856123a3565b612b536020830184612379565b9392505050565b612b6381612388565b8114612b6e57600080fd5b50565b600081519050612b8081612b5a565b92915050565b600060208284031215612b9c57612b9b61229b565b5b6000612baa84828501612b71565b91505092915050565b7f4e487b7100000000000000000000000000000000000000000000000000000000600052601160045260246000fd5b6000612bed826122a5565b9150612bf8836122a5565b9250828203905081811115612c1057612c0f612bb3565b5b92915050565b6000612c21826122a5565b9150612c2c836122a5565b9250828201905080821115612c4457612c43612bb3565b5b92915050565b7f5374616b65206973207374696c6c206c6f636b65640000000000000000000000600082015250565b6000612c8060158361243d565b9150612c8b82612c4a565b602082019050919050565b60006020820190508181036000830152612caf81612c73565b9050919050565b7f4e487b7100000000000000000000000000000000000000000000000000000000600052602260045260246000fd5b60006002820490506001821680612cfd57607f821691505b602082108103612d1057612d0f612cb6565b5b50919050565b7f596f752061726520747279696e6720746f207374616b652062656c6f7720746860008201527f65206d696e696d756d20666f72207468697320706f6f6c000000000000000000602082015250565b6000612d7260378361243d565b9150612d7d82612d16565b604082019050919050565b60006020820190508181036000830152612da181612d65565b9050919050565b6000606082019050612dbd60008301866123a3565b612dca60208301856123a3565b612dd76040830184612379565b949350505050565b6000612dea826122a5565b9150612df5836122a5565b9250817fffffffffffffffffffffffffffffffffffffffffffffffffffffffffffffffff0483118215151615612e2e57612e2d612bb3565b5b828202905092915050565b7f4e487b7100000000000000000000000000000000000000000000000000000000600052601260045260246000fd5b6000612e73826122a5565b9150612e7e836122a5565b925082612e8e57612e8d612e39565b5b828204905092915050565b7f596f752063757272656e746c792068617665206e6f207374616b6520696e207460008201527f68697320706f6f6c000000000000000000000000000000000000000000000000602082015250565b6000612ef560288361243d565b9150612f0082612e99565b604082019050919050565b60006020820190508181036000830152612f2481612ee8565b9050919050565b7f526577617264732061726520746f6f20736d616c6c20746f20626520636c616960008201527f6d65640000000000000000000000000000000000000000000000000000000000602082015250565b6000612f8760238361243d565b9150612f9282612f2b565b604082019050919050565b60006020820190508181036000830152612fb681612f7a565b9050919050565b60008190508160005260206000209050919050565b60006020601f8301049050919050565b600082821b905092915050565b60006008830261301f7fffffffffffffffffffffffffffffffffffffffffffffffffffffffffffffffff82612fe2565b6130298683612fe2565b95508019841693508086168417925050509392505050565b600061305c613057613052846122a5565b612538565b6122a5565b9050919050565b6000819050919050565b61307683613041565b61308a61308282613063565b848454612fef565b825550505050565b600090565b61309f613092565b6130aa81848461306d565b505050565b5b818110156130ce576130c3600082613097565b6001810190506130b0565b5050565b601f821115613113576130e481612fbd565b6130ed84612fd2565b810160208510156130fc578190505b61311061310885612fd2565b8301826130af565b50505b505050565b600082821c905092915050565b600061313660001984600802613118565b1980831691505092915050565b600061314f8383613125565b9150826002028217905092915050565b61316882612432565b67ffffffffffffffff81111561318157613180612734565b5b61318b8254612ce5565b6131968282856130d2565b600060209050601f8311600181146131c957600084156131b7578287015190505b6131c18582613143565b865550613229565b601f1984166131d786612fbd565b60005b828110156131ff578489015182556001820191506020850194506020810190506131da565b8683101561321c5784890151613218601f891682613125565b8355505b6001600288020188555050505b505050505050565b7f4f776e61626c653a206e6577206f776e657220697320746865207a65726f206160008201527f6464726573730000000000000000000000000000000000000000000000000000602082015250565b600061328d60268361243d565b915061329882613231565b604082019050919050565b600060208201905081810360008301526132bc81613280565b9050919050565b7f4f776e61626c653a2063616c6c6572206973206e6f7420746865206f776e6572600082015250565b60006132f960208361243d565b9150613304826132c3565b602082019050919050565b60006020820190508181036000830152613328816132ec565b905091905056fea2646970667358221220d6cafafa79e5c725f9c16324b24da6ecd096416b6033c978d7422e0fd6209c4064736f6c63430008100033",
  "linkReferences": {},
  "deployedLinkReferences": {}
}