{
  "_format": "hh-sol-artifact-1",
  "contractName": "KsnStaking",
  "sourceName": "contracts/tokens/staking.sol",
  "abi": [
    {
      "inputs": [
        {
          "internalType": "address",
          "name": "_stakingToken",
          "type": "address"
        },
        {
          "internalType": "address",
          "name": "_rewardsToken",
          "type": "address"
        },
        {
          "internalType": "address",
          "name": "administratorAddress",
          "type": "address"
        },
        {
          "internalType": "address",
          "name": "_feeReceiver",
          "type": "address"
        }
      ],
      "stateMutability": "nonpayable",
      "type": "constructor"
    },
    {
      "anonymous": false,
      "inputs": [
        {
          "indexed": true,
          "internalType": "address",
          "name": "previousOwner",
          "type": "address"
        },
        {
          "indexed": true,
          "internalType": "address",
          "name": "newOwner",
          "type": "address"
        }
      ],
      "name": "OwnershipTransferred",
      "type": "event"
    },
    {
      "inputs": [
        {
          "internalType": "uint256",
          "name": "_poolID",
          "type": "uint256"
        },
        {
          "internalType": "uint256",
          "name": "_newAPY",
          "type": "uint256"
        }
      ],
      "name": "adjustAPY",
      "outputs": [],
      "stateMutability": "nonpayable",
      "type": "function"
    },
    {
      "inputs": [
        {
          "internalType": "address",
          "name": "userAddress",
          "type": "address"
        },
        {
          "internalType": "uint256",
          "name": "poolID",
          "type": "uint256"
        }
      ],
      "name": "calculateUserRewards",
      "outputs": [
        {
          "internalType": "uint256",
          "name": "",
          "type": "uint256"
        }
      ],
      "stateMutability": "view",
      "type": "function"
    },
    {
      "inputs": [
        {
          "internalType": "uint256",
          "name": "_poolID",
          "type": "uint256"
        }
      ],
      "name": "claimReward",
      "outputs": [],
      "stateMutability": "nonpayable",
      "type": "function"
    },
    {
      "inputs": [
        {
          "internalType": "string",
          "name": "_poolName",
          "type": "string"
        },
        {
          "internalType": "uint256",
          "name": "_stakingDuration",
          "type": "uint256"
        },
        {
          "internalType": "uint256",
          "name": "_APY",
          "type": "uint256"
        },
        {
          "internalType": "uint256",
          "name": "_minimumDeposit",
          "type": "uint256"
        }
      ],
      "name": "createPool",
      "outputs": [
        {
          "internalType": "uint256",
          "name": "_createdPoolIndex",
          "type": "uint256"
        }
      ],
      "stateMutability": "nonpayable",
      "type": "function"
    },
    {
      "inputs": [],
      "name": "feeReceiver",
      "outputs": [
        {
          "internalType": "address",
          "name": "",
          "type": "address"
        }
      ],
      "stateMutability": "view",
      "type": "function"
    },
    {
      "inputs": [
        {
          "internalType": "uint256",
          "name": "_poolID",
          "type": "uint256"
        }
      ],
      "name": "getAPY",
      "outputs": [
        {
          "internalType": "uint256",
          "name": "",
          "type": "uint256"
        }
      ],
      "stateMutability": "view",
      "type": "function"
    },
    {
      "inputs": [
        {
          "internalType": "uint256",
          "name": "_poolID",
          "type": "uint256"
        }
      ],
      "name": "getPoolState",
      "outputs": [
        {
          "internalType": "bool",
          "name": "_stakingIsPaused",
          "type": "bool"
        }
      ],
      "stateMutability": "view",
      "type": "function"
    },
    {
      "inputs": [],
      "name": "getTotalStaked",
      "outputs": [
        {
          "internalType": "uint256",
          "name": "",
          "type": "uint256"
        }
      ],
      "stateMutability": "view",
      "type": "function"
    },
    {
      "inputs": [
        {
          "internalType": "uint256",
          "name": "poolID",
          "type": "uint256"
        },
        {
          "internalType": "address",
          "name": "userAddress",
          "type": "address"
        }
      ],
      "name": "getUserStakingBalance",
      "outputs": [
        {
          "internalType": "uint256",
          "name": "",
          "type": "uint256"
        }
      ],
      "stateMutability": "view",
      "type": "function"
    },
    {
      "inputs": [
        {
          "internalType": "address",
          "name": "_user",
          "type": "address"
        },
        {
          "internalType": "uint256",
          "name": "_poolID",
          "type": "uint256"
        }
      ],
      "name": "lastTimeUserStaked",
      "outputs": [
        {
          "internalType": "uint256",
          "name": "",
          "type": "uint256"
        }
      ],
      "stateMutability": "view",
      "type": "function"
    },
    {
      "inputs": [],
      "name": "owner",
      "outputs": [
        {
          "internalType": "address",
          "name": "",
          "type": "address"
        }
      ],
      "stateMutability": "view",
      "type": "function"
    },
    {
      "inputs": [
        {
          "internalType": "uint256",
          "name": "",
          "type": "uint256"
        }
      ],
      "name": "pool",
      "outputs": [
        {
          "internalType": "string",
          "name": "poolName",
          "type": "string"
        },
        {
          "internalType": "uint256",
          "name": "stakingDuration",
          "type": "uint256"
        },
        {
          "internalType": "uint256",
          "name": "APY",
          "type": "uint256"
        },
        {
          "internalType": "uint256",
          "name": "minimumDeposit",
          "type": "uint256"
        },
        {
          "internalType": "uint256",
          "name": "totalStaked",
          "type": "uint256"
        },
        {
          "internalType": "bool",
          "name": "stakingIsPaused",
          "type": "bool"
        },
        {
          "internalType": "bool",
          "name": "poolIsInitialized",
          "type": "bool"
        }
      ],
      "stateMutability": "view",
      "type": "function"
    },
    {
      "inputs": [
        {
          "internalType": "uint256",
          "name": "",
          "type": "uint256"
        }
      ],
      "name": "poolIndexArray",
      "outputs": [
        {
          "internalType": "uint256",
          "name": "",
          "type": "uint256"
        }
      ],
      "stateMutability": "view",
      "type": "function"
    },
    {
      "inputs": [],
      "name": "renounceOwnership",
      "outputs": [],
      "stateMutability": "nonpayable",
      "type": "function"
    },
    {
      "inputs": [],
      "name": "rewardsToken",
      "outputs": [
        {
          "internalType": "contract IERC20",
          "name": "",
          "type": "address"
        }
      ],
      "stateMutability": "view",
      "type": "function"
    },
    {
      "inputs": [
        {
          "internalType": "uint256",
          "name": "_amount",
          "type": "uint256"
        },
        {
          "internalType": "uint256",
          "name": "poolID",
          "type": "uint256"
        }
      ],
      "name": "stake",
      "outputs": [],
      "stateMutability": "nonpayable",
      "type": "function"
    },
    {
      "inputs": [],
      "name": "stakingToken",
      "outputs": [
        {
          "internalType": "contract IERC20",
          "name": "",
          "type": "address"
        }
      ],
      "stateMutability": "view",
      "type": "function"
    },
    {
      "inputs": [
        {
          "internalType": "uint256",
          "name": "_poolID",
          "type": "uint256"
        }
      ],
      "name": "togglePausePool",
      "outputs": [],
      "stateMutability": "nonpayable",
      "type": "function"
    },
    {
      "inputs": [
        {
          "internalType": "address",
          "name": "newOwner",
          "type": "address"
        }
      ],
      "name": "transferOwnership",
      "outputs": [],
      "stateMutability": "nonpayable",
      "type": "function"
    }
  ],
  "bytecode": "0x608060405234801561001057600080fd5b506004361061012c5760003560e01c80638edd659b116100ad578063b3f0067411610071578063b3f0067414610365578063b80e7de914610383578063d1af0c7d1461039f578063e1a7c823146103bd578063f2fde38b146103ed5761012c565b80638edd659b146102955780638eec5d70146102c5578063a208298b146102e3578063ac4afa3814610313578063ae169a50146103495761012c565b806372f702f3116100f457806372f702f3146101dd5780637628a37d146101fb5780637a7ff0dd14610217578063824ab345146102475780638da5cb5b146102775761012c565b80631069f3b51461013157806311344adc146101655780632f380b351461018157806340e85fc4146101b7578063715018a6146101d3575b600080fd5b61014b6004803603810190610146919061241b565b610409565b60405161015c959493929190612494565b60405180910390f35b61017f600480360381019061017a91906124e7565b610660565b005b61019b600480360381019061019691906124e7565b6108e4565b6040516101ae97969594939291906125ad565b60405180910390f35b6101d160048036038101906101cc91906124e7565b610ab8565b005b6101db610b5c565b005b6101e5610b70565b6040516101f29190612682565b60405180910390f35b6102156004803603810190610210919061269d565b610b96565b005b610231600480360381019061022c91906126f0565b61124f565b60405161023e9190612730565b60405180910390f35b610261600480360381019061025c91906126f0565b6113f5565b60405161026e9190612730565b60405180910390f35b61027f6114e4565b60405161028c919061274b565b60405180910390f35b6102af60048036038101906102aa919061241b565b61150d565b6040516102bc9190612766565b60405180910390f35b6102cd61153c565b6040516102da9190612730565b60405180910390f35b6102fd60048036038101906102f891906128b6565b611549565b60405161030a9190612730565b60405180910390f35b61032d600480360381019061032891906124e7565b611666565b60405161034097969594939291906125ad565b60405180910390f35b610363600480360381019061035e91906124e7565b61174a565b005b61036d611fef565b60405161037a919061274b565b60405180910390f35b61039d600480360381019061039891906124e7565b612015565b005b6103a76120b9565b6040516103b49190612682565b60405180910390f35b6103d760048036038101906103d291906124e7565b6120df565b6040516103e49190612730565b60405180910390f35b61040760048036038101906104029190612939565b612103565b005b60008060008060006001151560046000898152602001908152602001600020600b0160019054906101000a900460ff1615151461047b576040517f08c379a0000000000000000000000000000000000000000000000000000000008152600401610472906129b2565b60405180910390fd5b6004600088815260200190815260200160002060050160008773ffffffffffffffffffffffffffffffffffffffff1673ffffffffffffffffffffffffffffffffffffffff168152602001908152602001600020546004600089815260200190815260200160002060060160008873ffffffffffffffffffffffffffffffffffffffff1673ffffffffffffffffffffffffffffffffffffffff16815260200190815260200160002060009054906101000a900460ff16600460008a815260200190815260200160002060070160008973ffffffffffffffffffffffffffffffffffffffff1673ffffffffffffffffffffffffffffffffffffffff16815260200190815260200160002054600460008b815260200190815260200160002060080160008a73ffffffffffffffffffffffffffffffffffffffff1673ffffffffffffffffffffffffffffffffffffffff16815260200190815260200160002060009054906101000a900473ffffffffffffffffffffffffffffffffffffffff16600460008c815260200190815260200160002060090160008b73ffffffffffffffffffffffffffffffffffffffff1673ffffffffffffffffffffffffffffffffffffffff16815260200190815260200160002054945094509450945094509295509295909350565b60055481106106a4576040517f08c379a000000000000000000000000000000000000000000000000000000000815260040161069b90612a1e565b60405180910390fd5b600115156004600083815260200190815260200160002060060160003373ffffffffffffffffffffffffffffffffffffffff1673ffffffffffffffffffffffffffffffffffffffff16815260200190815260200160002060009054906101000a900460ff1615151461074b576040517f08c379a000000000000000000000000000000000000000000000000000000000815260040161074290612ab0565b60405180910390fd5b60006004600083815260200190815260200160002060090160003373ffffffffffffffffffffffffffffffffffffffff1673ffffffffffffffffffffffffffffffffffffffff168152602001908152602001600020549050600081116107e6576040517f08c379a00000000000000000000000000000000000000000000000000000000081526004016107dd90612b42565b60405180910390fd5b60006004600084815260200190815260200160002060090160003373ffffffffffffffffffffffffffffffffffffffff1673ffffffffffffffffffffffffffffffffffffffff16815260200190815260200160002081905550600160009054906101000a900473ffffffffffffffffffffffffffffffffffffffff1673ffffffffffffffffffffffffffffffffffffffff1663a9059cbb33836040518363ffffffff1660e01b815260040161089c929190612b62565b6020604051808303816000875af11580156108bb573d6000803e3d6000fd5b505050506040513d601f19601f820116820180604052508101906108df9190612bb7565b505050565b606060008060008060008060011515600460008a8152602001908152602001600020600b0160019054906101000a900460ff16151514610959576040517f08c379a0000000000000000000000000000000000000000000000000000000008152600401610950906129b2565b60405180910390fd5b60046000898152602001908152602001600020600001600460008a815260200190815260200160002060010154600460008b815260200190815260200160002060020154600460008c815260200190815260200160002060030154600460008d815260200190815260200160002060040154600460008e8152602001908152602001600020600b0160009054906101000a900460ff16600460008f8152602001908152602001600020600b0160019054906101000a900460ff16868054610a1f90612c13565b80601f0160208091040260200160405190810160405280929190818152602001828054610a4b90612c13565b8015610a985780601f10610a6d57610100808354040283529160200191610a98565b820191906000526020600020905b815481529060010190602001808311610a7b57829003601f168201915b505050505096509650965096509650965096509650919395979092949650565b610ac0612186565b6001151560046000838152602001908152602001600020600b0160019054906101000a900460ff16151514610b2a576040517f08c379a0000000000000000000000000000000000000000000000000000000008152600401610b21906129b2565b60405180910390fd5b600160046000838152602001908152602001600020600b0160006101000a81548160ff02191690831515021790555050565b610b64612186565b610b6e6000612204565b565b600260009054906101000a900473ffffffffffffffffffffffffffffffffffffffff1681565b6001151560046000848152602001908152602001600020600b0160019054906101000a900460ff16151514610c00576040517f08c379a0000000000000000000000000000000000000000000000000000000008152600401610bf7906129b2565b60405180910390fd5b6000151560046000848152602001908152602001600020600b0160009054906101000a900460ff16151514610c6a576040517f08c379a0000000000000000000000000000000000000000000000000000000008152600401610c6190612cdc565b60405180910390fd5b600015156004600084815260200190815260200160002060060160003373ffffffffffffffffffffffffffffffffffffffff1673ffffffffffffffffffffffffffffffffffffffff16815260200190815260200160002060009054906101000a900460ff16151514610d11576040517f08c379a0000000000000000000000000000000000000000000000000000000008152600401610d0890612d94565b60405180910390fd5b6004600083815260200190815260200160002060030154831015610d6a576040517f08c379a0000000000000000000000000000000000000000000000000000000008152600401610d6190612e26565b60405180910390fd5b600073ffffffffffffffffffffffffffffffffffffffff168173ffffffffffffffffffffffffffffffffffffffff1614158015610dd357503373ffffffffffffffffffffffffffffffffffffffff168173ffffffffffffffffffffffffffffffffffffffff1614155b15610ed457806004600084815260200190815260200160002060080160003373ffffffffffffffffffffffffffffffffffffffff1673ffffffffffffffffffffffffffffffffffffffff16815260200190815260200160002060006101000a81548173ffffffffffffffffffffffffffffffffffffffff021916908373ffffffffffffffffffffffffffffffffffffffff16021790555060016007600084815260200190815260200160002060008373ffffffffffffffffffffffffffffffffffffffff1673ffffffffffffffffffffffffffffffffffffffff16815260200190815260200160002060006101000a81548160ff0219169083151502179055505b600073ffffffffffffffffffffffffffffffffffffffff168173ffffffffffffffffffffffffffffffffffffffff1614158015610f3d57503373ffffffffffffffffffffffffffffffffffffffff168173ffffffffffffffffffffffffffffffffffffffff1614155b15610fd557806004600084815260200190815260200160002060080160003373ffffffffffffffffffffffffffffffffffffffff1673ffffffffffffffffffffffffffffffffffffffff16815260200190815260200160002060006101000a81548173ffffffffffffffffffffffffffffffffffffffff021916908373ffffffffffffffffffffffffffffffffffffffff1602179055505b82600460008481526020019081526020016000206004016000828254610ffb9190612e75565b92505081905550826004600084815260200190815260200160002060050160003373ffffffffffffffffffffffffffffffffffffffff1673ffffffffffffffffffffffffffffffffffffffff16815260200190815260200160002060008282546110659190612e75565b92505081905550600260009054906101000a900473ffffffffffffffffffffffffffffffffffffffff1673ffffffffffffffffffffffffffffffffffffffff166323b872dd3330866040518463ffffffff1660e01b81526004016110cb93929190612ecb565b6020604051808303816000875af11580156110ea573d6000803e3d6000fd5b505050506040513d601f19601f8201168201806040525081019061110e9190612bb7565b5060046000838152602001908152602001600020600a01339080600181540180825580915050600190039060005260206000200160009091909190916101000a81548173ffffffffffffffffffffffffffffffffffffffff021916908373ffffffffffffffffffffffffffffffffffffffff16021790555060016004600084815260200190815260200160002060060160003373ffffffffffffffffffffffffffffffffffffffff1673ffffffffffffffffffffffffffffffffffffffff16815260200190815260200160002060006101000a81548160ff021916908315150217905550426004600084815260200190815260200160002060070160003373ffffffffffffffffffffffffffffffffffffffff1673ffffffffffffffffffffffffffffffffffffffff16815260200190815260200160002081905550505050565b6000600115156004600084815260200190815260200160002060060160008573ffffffffffffffffffffffffffffffffffffffff1673ffffffffffffffffffffffffffffffffffffffff16815260200190815260200160002060009054906101000a900460ff161515036113ea5760006004600084815260200190815260200160002060070160008573ffffffffffffffffffffffffffffffffffffffff1673ffffffffffffffffffffffffffffffffffffffff168152602001908152602001600020549050600081426113239190612f02565b905060006004600086815260200190815260200160002060050160008773ffffffffffffffffffffffffffffffffffffffff1673ffffffffffffffffffffffffffffffffffffffff1681526020019081526020016000205490506000620f42408261138e9190612f65565b905060006301e13380612710856113a59190612f96565b6113af9190612f65565b6004600089815260200190815260200160002060020154836113d19190612f96565b6113db9190612f96565b905080955050505050506113ef565b600090505b92915050565b6000806004600084815260200190815260200160002060080160008573ffffffffffffffffffffffffffffffffffffffff1673ffffffffffffffffffffffffffffffffffffffff16815260200190815260200160002060009054906101000a900473ffffffffffffffffffffffffffffffffffffffff169050600073ffffffffffffffffffffffffffffffffffffffff168173ffffffffffffffffffffffffffffffffffffffff16146114d85760006114ae858561124f565b9050600060646005836114c19190612f96565b6114cb9190612f65565b90508093505050506114de565b60009150505b92915050565b60008060009054906101000a900473ffffffffffffffffffffffffffffffffffffffff16905090565b60076020528160005260406000206020528060005260406000206000915091509054906101000a900460ff1681565b6000600680549050905090565b6000611553612186565b84600460006005548152602001908152602001600020600001908051906020019061157f9291906122d0565b508360046000600554815260200190815260200160002060010181905550826004600060055481526020019081526020016000206002018190555081600460006005548152602001908152602001600020600301819055506001600460006005548152602001908152602001600020600b0160016101000a81548160ff021916908315150217905550600660055490806001815401808255809150506001900390600052602060002001600090919091909150556001600560008282546116469190612e75565b92505081905550600160055461165c9190612f02565b9050949350505050565b600460205280600052604060002060009150905080600001805461168990612c13565b80601f01602080910402602001604051908101604052809291908181526020018280546116b590612c13565b80156117025780601f106116d757610100808354040283529160200191611702565b820191906000526020600020905b8154815290600101906020018083116116e557829003601f168201915b50505050509080600101549080600201549080600301549080600401549080600b0160009054906101000a900460ff169080600b0160019054906101000a900460ff16905087565b600554811061178e576040517f08c379a000000000000000000000000000000000000000000000000000000000815260040161178590612a1e565b60405180910390fd5b600115156004600083815260200190815260200160002060060160003373ffffffffffffffffffffffffffffffffffffffff1673ffffffffffffffffffffffffffffffffffffffff16815260200190815260200160002060009054906101000a900460ff16151514611835576040517f08c379a000000000000000000000000000000000000000000000000000000000815260040161182c90612ab0565b60405180910390fd5b60006004600083815260200190815260200160002060070160003373ffffffffffffffffffffffffffffffffffffffff1673ffffffffffffffffffffffffffffffffffffffff16815260200190815260200160002054905060006004600084815260200190815260200160002060050160003373ffffffffffffffffffffffffffffffffffffffff1673ffffffffffffffffffffffffffffffffffffffff168152602001908152602001600020549050600460008481526020019081526020016000206001015482426119089190612f02565b1015611bc6576000620f42408261191f9190612f65565b905060006127106014836119339190612f96565b61193d9190612f96565b9050808361194b9190612f02565b9250806004600087815260200190815260200160002060050160003373ffffffffffffffffffffffffffffffffffffffff1673ffffffffffffffffffffffffffffffffffffffff16815260200190815260200160002060008282546119b09190612f02565b92505081905550600260009054906101000a900473ffffffffffffffffffffffffffffffffffffffff1673ffffffffffffffffffffffffffffffffffffffff1663a9059cbb600360009054906101000a900473ffffffffffffffffffffffffffffffffffffffff16836040518363ffffffff1660e01b8152600401611a36929190612b62565b6020604051808303816000875af1158015611a55573d6000803e3d6000fd5b505050506040513d601f19601f82011682018060405250810190611a799190612bb7565b50600260009054906101000a900473ffffffffffffffffffffffffffffffffffffffff1673ffffffffffffffffffffffffffffffffffffffff1663a9059cbb33856040518363ffffffff1660e01b8152600401611ad7929190612b62565b6020604051808303816000875af1158015611af6573d6000803e3d6000fd5b505050506040513d601f19601f82011682018060405250810190611b1a9190612bb7565b508083611b279190612e75565b600460008781526020019081526020016000206004016000828254611b4c9190612f02565b9250508190555060006004600087815260200190815260200160002060060160003373ffffffffffffffffffffffffffffffffffffffff1673ffffffffffffffffffffffffffffffffffffffff16815260200190815260200160002060006101000a81548160ff0219169083151502179055505050611fea565b6000611bd2338561124f565b905060008111611c17576040517f08c379a0000000000000000000000000000000000000000000000000000000008152600401611c0e90613062565b60405180910390fd5b600160009054906101000a900473ffffffffffffffffffffffffffffffffffffffff1673ffffffffffffffffffffffffffffffffffffffff1663a9059cbb33836040518363ffffffff1660e01b8152600401611c74929190612b62565b6020604051808303816000875af1158015611c93573d6000803e3d6000fd5b505050506040513d601f19601f82011682018060405250810190611cb79190612bb7565b5060006004600086815260200190815260200160002060050160003373ffffffffffffffffffffffffffffffffffffffff1673ffffffffffffffffffffffffffffffffffffffff16815260200190815260200160002081905550600260009054906101000a900473ffffffffffffffffffffffffffffffffffffffff1673ffffffffffffffffffffffffffffffffffffffff1663a9059cbb33846040518363ffffffff1660e01b8152600401611d6e929190612b62565b6020604051808303816000875af1158015611d8d573d6000803e3d6000fd5b505050506040513d601f19601f82011682018060405250810190611db19190612bb7565b5081600460008681526020019081526020016000206004016000828254611dd89190612f02565b9250508190555060006004600086815260200190815260200160002060060160003373ffffffffffffffffffffffffffffffffffffffff1673ffffffffffffffffffffffffffffffffffffffff16815260200190815260200160002060006101000a81548160ff0219169083151502179055506000611e5733866113f5565b90506000811115611fe75760006004600087815260200190815260200160002060080160003373ffffffffffffffffffffffffffffffffffffffff1673ffffffffffffffffffffffffffffffffffffffff16815260200190815260200160002060009054906101000a900473ffffffffffffffffffffffffffffffffffffffff169050816004600088815260200190815260200160002060090160008373ffffffffffffffffffffffffffffffffffffffff1673ffffffffffffffffffffffffffffffffffffffff1681526020019081526020016000206000828254611f3d9190612e75565b92505081905550600160009054906101000a900473ffffffffffffffffffffffffffffffffffffffff1673ffffffffffffffffffffffffffffffffffffffff1663a9059cbb82846040518363ffffffff1660e01b8152600401611fa1929190612b62565b6020604051808303816000875af1158015611fc0573d6000803e3d6000fd5b505050506040513d601f19601f82011682018060405250810190611fe49190612bb7565b50505b50505b505050565b600360009054906101000a900473ffffffffffffffffffffffffffffffffffffffff1681565b61201d612186565b6001151560046000838152602001908152602001600020600b0160019054906101000a900460ff16151514612087576040517f08c379a000000000000000000000000000000000000000000000000000000000815260040161207e906129b2565b60405180910390fd5b600060046000838152602001908152602001600020600b0160006101000a81548160ff02191690831515021790555050565b600160009054906101000a900473ffffffffffffffffffffffffffffffffffffffff1681565b600681815481106120ef57600080fd5b906000526020600020016000915090505481565b61210b612186565b600073ffffffffffffffffffffffffffffffffffffffff168173ffffffffffffffffffffffffffffffffffffffff160361217a576040517f08c379a0000000000000000000000000000000000000000000000000000000008152600401612171906130f4565b60405180910390fd5b61218381612204565b50565b61218e6122c8565b73ffffffffffffffffffffffffffffffffffffffff166121ac6114e4565b73ffffffffffffffffffffffffffffffffffffffff1614612202576040517f08c379a00000000000000000000000000000000000000000000000000000000081526004016121f990613160565b60405180910390fd5b565b60008060009054906101000a900473ffffffffffffffffffffffffffffffffffffffff169050816000806101000a81548173ffffffffffffffffffffffffffffffffffffffff021916908373ffffffffffffffffffffffffffffffffffffffff1602179055508173ffffffffffffffffffffffffffffffffffffffff168173ffffffffffffffffffffffffffffffffffffffff167f8be0079c531659141344cd1fd0a4f28419497f9722a3daafe3b4186f6b6457e060405160405180910390a35050565b600033905090565b8280546122dc90612c13565b90600052602060002090601f0160209004810192826122fe5760008555612345565b82601f1061231757805160ff1916838001178555612345565b82800160010185558215612345579182015b82811115612344578251825591602001919060010190612329565b5b5090506123529190612356565b5090565b5b8082111561236f576000816000905550600101612357565b5090565b6000604051905090565b600080fd5b600080fd5b6000819050919050565b61239a81612387565b81146123a557600080fd5b50565b6000813590506123b781612391565b92915050565b600073ffffffffffffffffffffffffffffffffffffffff82169050919050565b60006123e8826123bd565b9050919050565b6123f8816123dd565b811461240357600080fd5b50565b600081359050612415816123ef565b92915050565b600080604083850312156124325761243161237d565b5b6000612440858286016123a8565b925050602061245185828601612406565b9150509250929050565b61246481612387565b82525050565b60008115159050919050565b61247f8161246a565b82525050565b61248e816123dd565b82525050565b600060a0820190506124a9600083018861245b565b6124b66020830187612476565b6124c3604083018661245b565b6124d06060830185612485565b6124dd608083018461245b565b9695505050505050565b6000602082840312156124fd576124fc61237d565b5b600061250b848285016123a8565b91505092915050565b600081519050919050565b600082825260208201905092915050565b60005b8381101561254e578082015181840152602081019050612533565b8381111561255d576000848401525b50505050565b6000601f19601f8301169050919050565b600061257f82612514565b612589818561251f565b9350612599818560208601612530565b6125a281612563565b840191505092915050565b600060e08201905081810360008301526125c7818a612574565b90506125d6602083018961245b565b6125e3604083018861245b565b6125f0606083018761245b565b6125fd608083018661245b565b61260a60a0830185612476565b61261760c0830184612476565b98975050505050505050565b6000819050919050565b600061264861264361263e846123bd565b612623565b6123bd565b9050919050565b600061265a8261262d565b9050919050565b600061266c8261264f565b9050919050565b61267c81612661565b82525050565b60006020820190506126976000830184612673565b92915050565b6000806000606084860312156126b6576126b561237d565b5b60006126c4868287016123a8565b93505060206126d5868287016123a8565b92505060406126e686828701612406565b9150509250925092565b600080604083850312156127075761270661237d565b5b600061271585828601612406565b9250506020612726858286016123a8565b9150509250929050565b6000602082019050612745600083018461245b565b92915050565b60006020820190506127606000830184612485565b92915050565b600060208201905061277b6000830184612476565b92915050565b600080fd5b600080fd5b7f4e487b7100000000000000000000000000000000000000000000000000000000600052604160045260246000fd5b6127c382612563565b810181811067ffffffffffffffff821117156127e2576127e161278b565b5b80604052505050565b60006127f5612373565b905061280182826127ba565b919050565b600067ffffffffffffffff8211156128215761282061278b565b5b61282a82612563565b9050602081019050919050565b82818337600083830152505050565b600061285961285484612806565b6127eb565b90508281526020810184848401111561287557612874612786565b5b612880848285612837565b509392505050565b600082601f83011261289d5761289c612781565b5b81356128ad848260208601612846565b91505092915050565b600080600080608085870312156128d0576128cf61237d565b5b600085013567ffffffffffffffff8111156128ee576128ed612382565b5b6128fa87828801612888565b945050602061290b878288016123a8565b935050604061291c878288016123a8565b925050606061292d878288016123a8565b91505092959194509250565b60006020828403121561294f5761294e61237d565b5b600061295d84828501612406565b91505092915050565b7f506f6f6c20646f6573206e6f7420657869737400000000000000000000000000600082015250565b600061299c60138361251f565b91506129a782612966565b602082019050919050565b600060208201905081810360008301526129cb8161298f565b9050919050565b7f496e76616c696420706f6f6c2049440000000000000000000000000000000000600082015250565b6000612a08600f8361251f565b9150612a13826129d2565b602082019050919050565b60006020820190508181036000830152612a37816129fb565b9050919050565b7f596f752063757272656e746c792068617665206e6f207374616b6520696e207460008201527f68697320706f6f6c2e0000000000000000000000000000000000000000000000602082015250565b6000612a9a60298361251f565b9150612aa582612a3e565b604082019050919050565b60006020820190508181036000830152612ac981612a8d565b9050919050565b7f596f752063757272656e746c792068617665206e6f20726566657272616c207260008201527f65776172647320746f20636c61696d0000000000000000000000000000000000602082015250565b6000612b2c602f8361251f565b9150612b3782612ad0565b604082019050919050565b60006020820190508181036000830152612b5b81612b1f565b9050919050565b6000604082019050612b776000830185612485565b612b84602083018461245b565b9392505050565b612b948161246a565b8114612b9f57600080fd5b50565b600081519050612bb181612b8b565b92915050565b600060208284031215612bcd57612bcc61237d565b5b6000612bdb84828501612ba2565b91505092915050565b7f4e487b7100000000000000000000000000000000000000000000000000000000600052602260045260246000fd5b60006002820490506001821680612c2b57607f821691505b602082108103612c3e57612c3d612be4565b5b50919050565b7f5374616b696e6720696e207468697320706f6f6c2069732063757272656e746c60008201527f79207061757365642e20506c6561736520636f6e74616374207468652061646d60208201527f696e000000000000000000000000000000000000000000000000000000000000604082015250565b6000612cc660428361251f565b9150612cd182612c44565b606082019050919050565b60006020820190508181036000830152612cf581612cb9565b9050919050565b7f596f752063757272656e746c7920686176652061207374616b6520696e20746860008201527f697320706f6f6c2e20596f75206861766520746f20756e7374616b652066697260208201527f7374000000000000000000000000000000000000000000000000000000000000604082015250565b6000612d7e60428361251f565b9150612d8982612cfc565b606082019050919050565b60006020820190508181036000830152612dad81612d71565b9050919050565b7f596f752061726520747279696e6720746f207374616b652062656c6f7720746860008201527f65206d696e696d756d20666f72207468697320706f6f6c000000000000000000602082015250565b6000612e1060378361251f565b9150612e1b82612db4565b604082019050919050565b60006020820190508181036000830152612e3f81612e03565b9050919050565b7f4e487b7100000000000000000000000000000000000000000000000000000000600052601160045260246000fd5b6000612e8082612387565b9150612e8b83612387565b9250827fffffffffffffffffffffffffffffffffffffffffffffffffffffffffffffffff03821115612ec057612ebf612e46565b5b828201905092915050565b6000606082019050612ee06000830186612485565b612eed6020830185612485565b612efa604083018461245b565b949350505050565b6000612f0d82612387565b9150612f1883612387565b925082821015612f2b57612f2a612e46565b5b828203905092915050565b7f4e487b7100000000000000000000000000000000000000000000000000000000600052601260045260246000fd5b6000612f7082612387565b9150612f7b83612387565b925082612f8b57612f8a612f36565b5b828204905092915050565b6000612fa182612387565b9150612fac83612387565b9250817fffffffffffffffffffffffffffffffffffffffffffffffffffffffffffffffff0483118215151615612fe557612fe4612e46565b5b828202905092915050565b7f526577617264732061726520746f6f20736d616c6c20746f20626520636c616960008201527f6d65640000000000000000000000000000000000000000000000000000000000602082015250565b600061304c60238361251f565b915061305782612ff0565b604082019050919050565b6000602082019050818103600083015261307b8161303f565b9050919050565b7f4f776e61626c653a206e6577206f776e657220697320746865207a65726f206160008201527f6464726573730000000000000000000000000000000000000000000000000000602082015250565b60006130de60268361251f565b91506130e982613082565b604082019050919050565b6000602082019050818103600083015261310d816130d1565b9050919050565b7f4f776e61626c653a2063616c6c6572206973206e6f7420746865206f776e6572600082015250565b600061314a60208361251f565b915061315582613114565b602082019050919050565b600060208201905081810360008301526131798161313d565b905091905056fea2646970667358221220865b09a0fa0696eccb552502505c7cfa3bb7e5d42c9cc4c63888950be876fd8a64736f6c634300080e0033",
  "linkReferences": {},
  "deployedLinkReferences": {}
}